{
  "contractName": "SimpleTransfer",
  "abi": [
    {
      "anonymous": false,
      "inputs": [
        {
          "indexed": true,
          "internalType": "address",
          "name": "from",
          "type": "address"
        },
        {
          "indexed": true,
          "internalType": "address",
          "name": "to",
          "type": "address"
        },
        {
          "indexed": false,
          "internalType": "uint256",
          "name": "amount",
          "type": "uint256"
        }
      ],
      "name": "Transfer",
      "type": "event"
    },
    {
      "inputs": [
        {
          "internalType": "address payable",
          "name": "recipient",
          "type": "address"
        }
      ],
      "name": "transfer",
      "outputs": [],
      "stateMutability": "payable",
      "type": "function"
    }
  ],
  "bytecode": "0x608060405234801561001057600080fd5b50610389806100206000396000f3fe60806040526004361061001e5760003560e01c80631a69523014610023575b600080fd5b61003d600480360381019061003891906101b6565b61003f565b005b60003411610082576040517f08c379a0000000000000000000000000000000000000000000000000000000008152600401610079906102b4565b60405180910390fd5b600073ffffffffffffffffffffffffffffffffffffffff168173ffffffffffffffffffffffffffffffffffffffff1614156100f2576040517f08c379a00000000000000000000000000000000000000000000000000000000081526004016100e990610294565b60405180910390fd5b8073ffffffffffffffffffffffffffffffffffffffff166108fc349081150290604051600060405180830381858888f19350505050158015610138573d6000803e3d6000fd5b508073ffffffffffffffffffffffffffffffffffffffff163373ffffffffffffffffffffffffffffffffffffffff167fddf252ad1be2c89b69c2b068fc378daa952ba7f163c4a11628f55a4df523b3ef3460405161019691906102d4565b60405180910390a350565b6000813590506101b08161033c565b92915050565b6000602082840312156101c857600080fd5b60006101d6848285016101a1565b91505092915050565b60006101ec6019836102ef565b91507f496e76616c696420726563697069656e742061646472657373000000000000006000830152602082019050919050565b600061022c6029836102ef565b91507f5472616e7366657220616d6f756e74206d75737420626520677265617465722060008301527f7468616e207a65726f00000000000000000000000000000000000000000000006020830152604082019050919050565b61028e81610332565b82525050565b600060208201905081810360008301526102ad816101df565b9050919050565b600060208201905081810360008301526102cd8161021f565b9050919050565b60006020820190506102e96000830184610285565b92915050565b600082825260208201905092915050565b600061030b82610312565b9050919050565b600073ffffffffffffffffffffffffffffffffffffffff82169050919050565b6000819050919050565b61034581610300565b811461035057600080fd5b5056fea2646970667358221220605ea542e3e88b8e4d49b4364bf48ef06b4b7fa4011d6215a8c1dd10ed57812364736f6c63430008000033",
  "immutableReferences": {},
  "source": "// SPDX-License-Identifier: MIT\r\npragma solidity ^0.8.0;\r\n\r\ncontract SimpleTransfer {\r\n    event Transfer(address indexed from, address indexed to, uint256 amount);\r\n\r\n    // Function to transfer Ether\r\n    function transfer(address payable recipient) external payable {\r\n        require(msg.value > 0, \"Transfer amount must be greater than zero\");\r\n        require(recipient != address(0), \"Invalid recipient address\");\r\n\r\n        recipient.transfer(msg.value);\r\n        emit Transfer(msg.sender, recipient, msg.value);\r\n    }\r\n}\r\n",
  "sourcePath": "C:\\Users\\hp\\truffle-project\\contracts\\SimpleTransfer.sol",
  "compiler": {
    "name": "solc",
    "version": "0.8.0+commit.c7dfd78e.Emscripten.clang"
  },
  "schemaVersion": "3.4.16",
  "updatedAt": "2024-12-20T13:46:43.798Z",
  "devdoc": {
    "kind": "dev",
    "methods": {},
    "version": 1
  },
  "userdoc": {
    "kind": "user",
    "methods": {},
    "version": 1
  }
}